:100000000C942A000C9447000C9447000C94470071
:100010000C9447000C9447000C9447000C94470044
:100020000C9447000C9447000C9447000C94470034
:100030000C9447000C9447000C9447000C94470024
:100040000C9447000C9447000C9447000C94470014
:100050000C94470011241FBECFE5D8E0DEBFCDBF12
:1000600011E0A0E6B0E0E8E1F9E002C005900D92F1
:10007000A237B107D9F721E0A2E7B1E001C01D9294
:10008000AC37B207E1F70E9449000C948A040C9443
:1000900000000E94790180E090E00895909374013F
:1000A00080937301609372018091750186608093E3
:1000B000750181E008956AE085E090E00E944E00BD
:1000C00080917301909174010597D9F480E690E0D6
:1000D0009F938F9382E790E09F938F938CE790E0BC
:1000E0009F938F9383E890E09F938F930E947C016E
:1000F0008DB79EB708960FB6F8949EBF0FBE8DBF02
:100100003FC089E990E09F938F9382E790E09F93AF
:100110008F938CE790E09F938F938CEB90E09F936D
:100120008F930E947C0182ED90E09F938F930E94B9
:100130007C011F9285E08F9387EE90E09F938F93D1
:100140000E947C018AEE90E09F938F930E947C0135
:10015000809174018F93809173018F9380E091E07F
:100160009F938F930E947C0184E091E00E94920112
:100170008DB79EB744960FB6F8949EBF0FBE8DBF45
:10018000809172018730D9F486E091E09F938F933C
:1001900082E790E09F938F938CE790E09F938F93FB
:1001A00083E890E09F938F930E947C018DB79EB768
:1001B00008960FB6F8949EBF0FBE8DBF3DC088E174
:1001C00091E09F938F9382E790E09F938F938CE7CA
:1001D00090E09F938F938CEB90E09F938F930E947E
:1001E0007C0182ED90E09F938F930E947C011F928F
:1001F00087E08F9387EE90E09F938F930E947C011E
:100200008AEE90E09F938F930E947C01809172010F
:100210001F928F9388E391E09F938F930E947C01BC
:1002200084E091E00E9492018DB79EB744960FB68C
:10023000F8949EBF0FBE8DBF809175018630D9F4B2
:100240008DE391E09F938F9382E790E09F938F934C
:100250008CE790E09F938F9383E890E09F938F9338
:100260000E947C018DB79EB708960FB6F8949EBF8A
:100270000FBE8DBF08958FE491E09F938F9382E727
:1002800090E09F938F938CE790E09F938F938CEBFC
:1002900090E09F938F930E947C0182ED90E09F936A
:1002A0008F930E947C011F9286E08F9387EE90E0EF
:1002B0009F938F930E947C018AEE90E09F938F938F
:1002C0000E947C01809175011F928F9388E391E0D9
:1002D0009F938F930E947C0184E091E00E949201A1
:1002E0008DB79EB744960FB6F8949EBF0FBE8DBFD4
:1002F00008950E945B000895A0E0B0E0E2E8F1E01C
:100300000C946304AE014B5F5F4FFA0161917191F0
:10031000AF0180917801909179010E94C201E2E0E1
:100320000C947F040F931F93CF93DF93E091780198
:10033000F0917901238121FF1BC08C01D0E0C0E046
:10034000F80181918F016091780170917901DB0151
:100350001896ED91FC911997882331F00995892B16
:1003600079F3DFEFCFEFECCF8AE00995892B19F015
:100370008FEF9FEF02C08D2F9C2FDF91CF911F91A8
:100380000F910895ABE0B0E0E8ECF1E00C94530479
:100390006C017B018A01FC0117821682838181FF37
:1003A000CCC1CE0101963C01F6019381F70193FD8A
:1003B000859193FF81917F01882309F4BAC1853229
:1003C00039F493FD859193FF81917F01853229F462
:1003D000B60190E00E94B903E7CF912C212C312C7B
:1003E000FFE1F315D8F08B3279F038F4803279F0F0
:1003F0008332A1F4232D20611DC08D3261F0803342
:1004000069F4232D216016C0832D8260382EE32DE0
:10041000E4603E2E2AC0F32DF8601DC037FC2DC0CD
:1004200020ED280F2A3040F08E32B9F436FC81C11D
:10043000232D2064322E19C036FE06C08AE0989E15
:10044000200D1124922E11C0EAE02E9E200D1124C1
:10045000222EF32DF0623F2E08C08C3621F4832D1E
:100460008068382E02C0883641F4F70193FD8591EB
:1004700093FF81917F018111B3CF982F9F7D955478
:10048000933028F40C5F1F4F9FE399830DC0833690
:1004900031F0833771F0833509F059C021C0F8017C
:1004A000808189830E5F1F4F88248394912C530190
:1004B00013C02801F2E04F0E511CF801A080B1805A
:1004C00036FE03C0692D70E002C06FEF7FEFC501FB
:1004D0000E94AE034C018201F32DFF773F2E16C020
:1004E000280122E0420E511CF801A080B18036FEA6
:1004F00003C0692D70E002C06FEF7FEFC5010E945D
:10050000A3034C01F32DF0683F2E820133FC1BC086
:10051000822D90E088169906B0F4B60180E290E052
:100520000E94B9032A94F4CFF50137FC859137FE78
:1005300081915F01B60190E00E94B90321102A94D5
:1005400021E0821A91088114910471F7E8C0843681
:1005500011F0893641F5F80137FE07C060817181DD
:10056000828193810C5F1F4F08C060817181072ECB
:10057000000C880B990B0E5F1F4FF32DFF763F2E5B
:1005800097FF09C090958095709561957F4F8F4F2B
:100590009F4FF0683F2E2AE030E0A3010E94F50350
:1005A000882E861845C0853731F4232D2F7EB22E34
:1005B0002AE030E025C0932D997FB92E8F36C1F007
:1005C00018F4883579F0B5C0803719F0883721F0F4
:1005D000B0C0E92FE061BE2EB4FE0DC0FB2DF4606B
:1005E000BF2E09C034FE0AC0292F2660B22E06C0D5
:1005F00028E030E005C020E130E002C020E132E038
:10060000F801B7FE07C060817181828193810C5F20
:100610001F4F06C06081718180E090E00E5F1F4F28
:10062000A3010E94F503882E8618FB2DFF773F2E2D
:1006300036FE0DC0232D2E7FA22E891458F434FED1
:100640000BC032FC09C0832D8E7EA82E05C0B82CAD
:10065000A32C03C0B82C01C0B92CA4FE0FC0FE010E
:10066000E80DF11D8081803321F49A2D997EA92E09
:1006700009C0A2FE06C0B394B39404C08A2D867844
:1006800009F0B394A3FC11C0A0FE06C0B21488F414
:10069000280C922C9B180EC0B21460F4B60180E2B4
:1006A00090E00E94B903B394F7CFB21418F42B185A
:1006B00002C0982C212CA4FE10C0B60180E390E06B
:1006C0000E94B903A2FE17C0A1FC03C088E790E016
:1006D00002C088E590E0B6010CC08A2D867859F0FA
:1006E000A1FE02C08BE201C080E2A7FC8DE2B60150
:1006F00090E00E94B903891438F4B60180E390E0D9
:100700000E94B9039A94F7CF8A94F301E80DF11D82
:100710008081B60190E00E94B9038110F5CF2220BC
:1007200009F442CEB60180E290E00E94B9032A9417
:10073000F6CFF6018681978102C08FEF9FEF2B964F
:10074000E2E10C946F04FC010590615070400110CF
:10075000D8F7809590958E0F9F1F0895FC016150EA
:10076000704001900110D8F7809590958E0F9F1FD3
:1007700008950F931F93CF93DF93FB01238121FDF6
:1007800003C08FEF9FEF2CC022FF16C04681578118
:10079000248135814217530744F4A081B1819D0122
:1007A0002F5F3F4F318320838C93268137812F5FCA
:1007B0003F4F3783268314C08B01EC01FB0100847B
:1007C000F185E02D0995892BE1F6D80116968D91DA
:1007D0009C911797019617969C938E931697CE012E
:1007E000DF91CF911F910F910895FA01AA27283028
:1007F00051F1203181F1E8946F936E7F6E5F7F4FEE
:100800008F4F9F4FAF4FB1E03ED0B4E03CD0670F69
:10081000781F891F9A1FA11D680F791F8A1F911DBC
:10082000A11D6A0F711D811D911DA11D20D009F40C
:1008300068943F912AE0269F11243019305D31934E
:10084000DEF6CF010895462F4770405D4193B3E037
:100850000FD0C9F7F6CF462F4F70405D4A3318F0DE
:10086000495D31FD4052419302D0A9F7EACFB4E08F
:10087000A6959795879577956795BA95C9F7009747
:100880006105710508959B01AC010A2E06945795E8
:10089000479537952795BA95C9F7620F731F841F3F
:1008A000951FA01D08952F923F924F925F926F92D5
:1008B0007F928F929F92AF92BF92CF92DF92EF92F0
:1008C000FF920F931F93CF93DF93CDB7DEB7CA1B71
:1008D000DB0B0FB6F894DEBF0FBECDBF09942A889C
:1008E000398848885F846E847D848C849B84AA8444
:1008F000B984C884DF80EE80FD800C811B81AA81D1
:10090000B981CE0FD11D0FB6F894DEBF0FBECDBF9B
:08091000ED010895F894FFCFFA
:10091800436F727265637420454541522064617467
:100928006100577269746542797465004565707233
:100938006F6D0050415353454420402573202825AE
:1009480073293A2025732E0A0057726F6E67204567
:10095800454152202841646472657373207265674B
:100968006973746572292064617461004641494C59
:1009780045442040257320282573293A2025732EC5
:100988000A002020204578706563746564205661EC
:100998006C7565203D2000256400202C627574204C
:1009A80041637475616C2056616C7565203D20004B
:1009B800256875002E00436F727265637420454583
:1009C800445220646174610057726F6E6720454518
:1009D80044522028446174612072656769737465A4
:1009E80072292064617461002568687500436F721C
:1009F80072656374204545435220646174610057F1
:100A0800726F6E6720454543522028436F6E74729B
:100A18006F6C2072656769737465722920646174EC
:020A280061006B
:00000001FF
