:100000000C942A000C9447000C9447000C94470071
:100010000C9447000C9447000C9447000C94470044
:100020000C9447000C9447000C9447000C94470034
:100030000C9447000C9447000C9447000C94470024
:100040000C9447000C9447000C9447000C94470014
:100050000C94470011241FBECFE5D8E0DEBFCDBF12
:1000600010E0A0E6B0E0EAE2F2E002C005900D92F6
:10007000AA36B107D9F720E0AAE6B0E001C01D9288
:10008000AA36B207E1F70E9449000C9413010C94C0
:100090000000CF93DF93CDB7DEB72A970FB6F89461
:1000A000DEBF0FBECDBF8AE0E0E6F0E0DE011196D4
:1000B00001900D928A95E1F74AE050E0BE016F5F32
:1000C0007F4F84E190E00E94AD004AE050E0BE0125
:1000D0006F5F7F4F8FE090E00E94E0004AE050E0C9
:1000E000BE016F5F7F4F84E190E00E94AD008FEF13
:1000F0008ABBDD9A2FE38DE093E021508040904051
:10010000E1F700C00000DD982FE38DE093E021507F
:1001100080409040E1F700C00000EBCFF894E199F7
:10012000FECF07B600FCFDCF9FBB8EBB6DBBE29A36
:10013000E19AE199FECF789481E00895F894E199ED
:10014000FECF07B600FCFDCF9FBB8EBBE09A8DB300
:10015000FB018083789481E00895EF92FF920F93E2
:100160001F93CF93DF93EC0141155105D9F07A012C
:10017000E80EF91E81E0E81684E0F806A8F4CE1532
:10018000DF05A0F4062F172FF80161918F01CE0132
:100190000E948E00882361F02196CE15DF05A0F322
:1001A00081E007C080E005C080E003C081E001C0BD
:1001B00080E0DF91CF911F910F91FF90EF90089514
:1001C000EF92FF920F931F93CF93DF93EC014115B2
:1001D0005105D9F07A01E80EF91E81E0E81684E0B5
:1001E000F806A8F4CE15DF05A0F4062F172FB801E6
:1001F000CE010E949E00882371F021960F5F1F4F51
:10020000CE15DF05A0F381E007C080E005C080E0E7
:1002100003C081E001C080E0DF91CF911F910F9179
:0A022000FF90EF900895F894FFCFCF
:0A022A000102030405060708090A93
:00000001FF
