:100000000C942A000C9434000C9434000C943400AA
:100010000C9434000C9434000C9434000C94340090
:100020000C9434000C9434000C9434000C94340080
:100030000C9434000C9434000C9434000C94340070
:100040000C9434000C9434000C9434000C94340060
:100050000C94340011241FBECFE5D8E0DEBFCDBF25
:100060000E9436000C944D000C9400008FEF8ABB68
:100070008BBB2FE33DE093E0215030409040E1F70F
:1000800000C000001BBA2FE33DE093E02150304058
:0E0090009040E1F700C00000EBCFF894FFCFE6
:00000001FF
