S0120000426F6F746C6F616465722E7372656307
S11300000C942A000C9434000C9434000C943400A6
S11300100C9434000C9434000C9434000C9434008C
S11300200C9434000C9434000C9434000C9434007C
S11300300C9434000C9434000C9434000C9434006C
S11300400C9434000C9434000C9434000C9434005C
S11300500C94340011241FBECFE5D8E0DEBFCDBF21
S11300600E9436000C944D000C9400008FEF8ABB64
S1130070DD9A2FE38DE093E0215080409040E1F73A
S113008000C00000DD982FE38DE093E02150804014
S11100909040E1F700C00000EBCFF894FFCFE2
S9030000FC
